:100000000C94E1000C9409010C9409010C94090171
:100010000C9409010C9409010C9409010C94090138
:100020000C9409010C9409010C9409010C94090128
:100030000C9409010C9409010C9409010C94090118
:100040000C94E40C0C9409010C9456050C943005A6
:100050000C9409010C9409010C9409010C940901F8
:100060000C949D0A0C94090154696D6520636865C0
:10007000636B3A092573202D2025540A004C445205
:10008000206C6576656C3A202564202D2025540A65
:10009000004C616D702073746174653A2025540AB8
:1000A0000A004C616D7020646561637469766174E7
:1000B00065640A004C616D702061637469766174D7
:1000C00065640A00416D6269656E74206C696768D9
:1000D00074207468726573686F6C64733A20096C7D
:1000E0006F77202D2025640968696768202D2025F9
:1000F000640A0A004F66662074696D653A20092516
:10010000730A004F6E2074696D653A200925730AE1
:100110000054696D65206973200925730A005254E3
:1001200043206C6F737420706F7765723B2073652A
:100130007474696E672074696D6520746F20636FD5
:100140006D70696C652074696D652E2E2E00576F79
:10015000726B696E672E2E2E0A0066616C736500E5
:10016000747275650000000000240027002A00005A
:10017000000000250028002B0004040404040404EB
:100180000402020202020203030303030301020446
:100190000810204080010204081020010204081009
:1001A0002000000008000201000003040700000016
:1001B00000000000001F1C1F1E1F1E1F1F1E1F1EF1
:1001C000921011241FBECFEFD8E0DEBFCDBF23E0D9
:1001D000A4E8B1E001C01D92A235B207E1F711E039
:1001E000A0E0B1E0E0E9FCE202C005900D92A43885
:1001F000B107D9F710E0C1EED0E004C02197FE01AD
:100200000E94E212C03ED107C9F70E942E0D0C9445
:1002100046160C940000CF92DF92EF92FF920F935C
:100220001F93CF93DF936C017A018B01C0E0D0E084
:10023000CE15DF0581F0D8016D918D01D601ED91CC
:10024000FC910190F081E02DC6010995892B11F0F8
:100250002196EECF7E01C701DF91CF911F910F91C3
:10026000FF90EF90DF90CF900895089580E090E0A8
:100270000895FC01538D448D252F30E0842F90E0AC
:10028000821B930B541710F0CF9608950197089591
:10029000FC01918D828D981761F0828DDF01A80F8E
:1002A000B11D5D968C91928D9F5F9F73928F90E0B0
:1002B00008958FEF9FEF0895FC01918D828D98171F
:1002C00031F0828DE80FF11D858D90E008958FEF5C
:1002D0009FEF0895FC01918D228D892F90E0805C25
:1002E0009F4F821B91098F73992708958CEF91E09E
:1002F0000E946A0121E0892B09F420E0822F0895F1
:10030000FC01848DDF01A80FB11DA35ABF4F2C91B2
:10031000848D90E001968F739927848FA689B78981
:100320002C93A089B1898C91837080648C93938D78
:10033000848D981306C00288F389E02D80818F7D1B
:1003400080830895EF92FF920F931F93CF93DF93D3
:10035000EC0181E0888F9B8D8C8D981305C0E88916
:10036000F989808185FD26C0F62E0B8D10E00F5F88
:100370001F4F0F731127E02E8C8DE8120CC00FB6A3
:1003800007FCFACFE889F989808185FFF5CFCE0196
:100390000E948001F1CF8B8DFE01E80FF11DE35A21
:1003A000FF4FF0829FB7F8940B8FEA89FB89808119
:1003B00080620AC09FB7F894EE89FF896083E8895C
:1003C000F98980818370806480839FBF81E090E0A1
:1003D000DF91CF911F910F91FF90EF900895CF93F0
:1003E000DF93EC01888D8823C9F0EA89FB8980813D
:1003F00085FD05C0A889B9898C9186FD0FC00FB60F
:1004000007FCF5CF808185FFF2CFA889B9898C914F
:1004100085FFEDCFCE010E948001E7CFDF91CF9124
:10042000089580E090E0892B29F00E9476018111E7
:100430000C9400000895FC01908190539A3008F0CC
:1004400090E0818180532AE0929F800D11240895CD
:100450000E948E13FF920F931F93CF93DF938C0113
:10046000FF24F394F0928501D8E6D093A70110926F
:1004700086011092A80160E080EF91E00E9481095E
:10048000F8012581CAE0822F6C2F0E94A212682FEA
:10049000660F860F880F682F620F80EF91E00E9431
:1004A0008109F8012481822F6C2F0E94A212682FEB
:1004B000660F860F880F682F620F80EF91E00E9411
:1004C0008109F8012381822F6C2F0E94A212682FCC
:1004D000660F860F880F682F620F80EF91E00E94F1
:1004E000810960E080EF91E00E948109F80122819A
:1004F000822F6C2F0E94A212682F660F860F880F22
:10050000682F620F80EF91E00E948109F80121813C
:10051000822F6C2F0E94A212682F660F860F880F01
:10052000682F620F80EF91E00E948109F80120811D
:10053000822F6C2F0E94A212682F660F860F880FE1
:10054000682F620F80EF91E00E9481090E94980855
:100550000E94B009C82FF0928501D093A701109294
:1005600086011092A8016FE080EF91E00E9481095E
:100570006C2F6F7780EF91E00E948109DF91CF911E
:100580001F910F91FF900C949808CF92DF92EF92F9
:10059000FF920F931F93CF93DF93EC0181E0809341
:1005A000850188E68093A701109286011092A80128
:1005B00060E080EF91E00E9481090E94980867E066
:1005C00088E60E945608109205038093040380EF8A
:1005D00091E00E9438098F77982F92959F701AEFBB
:1005E000082F919F000D112480EF91E00E9438099F
:1005F0009C01332794E0359527959A95E1F7F82EDD
:10060000129FF00C112480EF91E00E9438099C01A8
:10061000332744E0359527954A95E1F7E82E129F58
:10062000E00C112480EF91E00E94380980EF91E006
:100630000E9438099C01332754E0359527955A9537
:10064000E1F7D82E129FD00C112480EF91E00E9488
:1006500038099C01332764E0359527956A95E1F7C1
:10066000C82E129FC00C112480EF91E00E9438091F
:100670009C01332774E0359527957A95E1F7129F11
:10068000800D11248883C982DA82EB82FC820D837B
:10069000CE01DF91CF911F910F91FF90EF90DF90EE
:1006A000CF9008954F925F926F927F928F929F9218
:1006B000AF92BF92CF92DF92EF92FF920F931F9370
:1006C000CF93DF93CDB7DEB7AE970FB6F894DEBF0A
:1006D0000FBECDBFCE0189960E94C5028CA59DA5F7
:1006E000863030F4853049F411E09E3158F405C06D
:1006F000863108F4ACC1863111F010E003C011E07E
:100700009E31D8F72EA51F922F931F929F931F9271
:100710008F9388E491E09F938F93CE0101967C01A3
:100720009F938F930E9493131F921F93FF92EF92B8
:1007300088E690E09F938F931F9286E08F9389E9DC
:1007400092E09F938F930E940A0680E480937C003E
:1007500080917A00806480937A000FB6F894DEBFAF
:100760000FBECDBF80917A00982F9074B92E86FD70
:10077000F9CF809178002091790090E0922B209120
:10078000840101E0222321F08E3191052CF003C079
:100790008A3091050CF000E01F920F939F938F9386
:1007A0008DE790E09F938F931F9286E08F9389E966
:1007B00092E09F938F930E940A0610230FB6F8943D
:1007C000DEBF0FBECDBF80918401811709F412C135
:1007D000112309F4E8C08091E202811198C061E020
:1007E0008091D6020E94180C0091A202602F70E046
:1007F00080E090E00E9434116B017C012091CC02DA
:100800003091CD024091CE025091CF020E949311BF
:100810002B013C0120E030E0A9010E942D1187FD51
:100820000DC0A3019201C701B6010E942D1187FDE1
:1008300007C0C301B2010E94551303C060E001C0AC
:10084000602F6093E3022091D0023091D102409159
:10085000D2025091D302C701B6010E9493112B011D
:100860003C0120E030E0A9010E942D1187FD0FC05E
:10087000A3019201C701B6010E942D1187FD06C098
:10088000C301B2010E945513B62E01C0B02EB09222
:10089000E40281E08093E2028091D402811126C0BB
:1008A0000E94D80C4B015C016093AC029092AD02A7
:1008B000A092AE02B092AF021092B0021092B102BA
:1008C0001092B2021092B30288EE8093B40283E0D9
:1008D0008093B5021092B6021092B7021092B8023D
:1008E0001092B9021092BA021092BB0281E080937A
:1008F000AB028091E3022091A20230E090E0281741
:1009000039070CF4C9018093D8020E942008809115
:10091000D402811134C00E94D80C4B015C01609359
:10092000AC029092AD02A092AE02B092AF021092D1
:10093000B0021092B1021092B2021092B3028091F2
:10094000BC028093B4028091BD028093B502809175
:10095000BE028093B6028091BF028093B70280915D
:10096000C0028093B8028091C1028093B902809145
:10097000C2028093BA028091C3028093BB0281E0DD
:100980008093AB028091E3022091A20230E090E0DC
:10099000281739070CF4C9018093D8020E94200857
:1009A00084EB90E014C02091E40230E01092AB029E
:1009B0001092D4028091A20290E0281739070CF41B
:1009C000C9018093D8020E94200882EA90E09F9398
:1009D0008F931F9284E08F9389E992E09F938F9386
:1009E0000E940A060F900F900F900F900F900F909B
:1009F00010938401809184011F928F9381E990E08C
:100A00009F938F931F9286E08F9389E992E09F9343
:100A10008F930E940A060FB6F894DEBF0FBECDBFBB
:100A2000AE960FB6F894DEBF0FBECDBFDF91CF916B
:100A30001F910F91FF90EF90DF90CF90BF90AF90FC
:100A40009F908F907F906F905F904F90089511E0EE
:100A500059CEDC01ED91FC910190F081E02D0994DB
:100A60001F920F920FB60F9211242F933F934F9323
:100A70005F936F937F938F939F93AF93BF93EF9306
:100A8000FF938CEF91E00E948001FF91EF91BF9165
:100A9000AF919F918F917F916F915F914F913F9116
:100AA0002F910F900FBE0F901F9018951F920F92CD
:100AB0000FB60F9211242F938F939F93EF93FF9371
:100AC000E0910C02F0910D028081E0911202F09110
:100AD000130282FD12C09081809115028F5F8F7387
:100AE00020911602821751F0E0911502F0E0E450D7
:100AF000FE4F958F8093150201C08081FF91EF9189
:100B00009F918F912F910F900FBE0F901F9018956E
:100B1000EF92FF920F931F93CF93DF938C017B0192
:100B2000C0E0D0E0F701EC0FFD1F6491662361F097
:100B3000D801ED91FC910190F081E02DC80109955B
:100B4000892B11F02196EECFCE01DF91CF911F912D
:100B50000F91FF90EF9008956115710579F0FB01F9
:100B600001900020E9F73197AF01461B570BDC01DC
:100B7000ED91FC910280F381E02D099480E090E0FA
:100B800008958F929F92AF92BF92EF92FF920F9330
:100B90001F93CF93DF93CDB7DEB7A1970FB6F8942D
:100BA000DEBF0FBECDBF7C01FA01CB0119A22230FE
:100BB00008F42AE08E010F5D1F4F822E912CA12C8C
:100BC000B12CBF01A50194010E94AE12F901CA0126
:100BD000015011096A3014F4605D01C0695CD801EC
:100BE0006C93232B242B252B61F7B801C7010E949E
:100BF000AC05A1960FB6F894DEBF0FBECDBFDF9156
:100C0000CF911F910F91FF90EF90BF90AF909F9069
:100C10008F9008954F925F926F927F928F929F92E2
:100C2000AF92BF92CF92DF92EF92FF920F931F93FA
:100C3000CF93DF93CDB7DEB727970FB6F894DEBF1B
:100C40000FBECDBF0C8D1D8DCE8CDF8C8091990297
:100C500090919A02801791070CF4DBC1E0919E02FB
:100C6000F0919F02309729F080919C0290919D0213
:100C7000099580919B028823D9F087E0EDE7F1E0A8
:100C8000DE01119601900D928A95E1F7FE01E00FC9
:100C9000F11F608180919C0290919D020E94290524
:100CA00064E671E080919C0290919D020E94AC05E7
:100CB0008E01005E1F4F76018FEFE81AF80AF601E9
:100CC0006491662309F49AC1653209F08BC167010A
:100CD000FFEFCF1ADF0AF7018491882309F489C155
:100CE000853239F480919C0290919D020E942905E1
:100CF00080C1833761F47801F2E0EF0EF11CF80156
:100D00006081718180919C0290919D023FC08335EA
:100D100061F47801F2E0EF0EF11CF801608171815D
:100D200080919C0290919D025AC1843611F08936BF
:100D300081F47801F2E0EF0EF11CF80180809180DF
:100D400000919C0210919D02092C000CAA08BB087E
:100D5000F8C0982F9D7F943409F0ACC07801F4E07E
:100D6000EF0EF11CF80180809180A280B380009189
:100D70009C0210919D02A5019401C501B4010E943D
:100D80008913882339F067E671E0C8010E94AC0539
:100D900087012FC124013501E89477F82FEF3FEF49
:100DA0004FE75FE7C301B2010E94891381110DC0B3
:100DB0002FEF3FEF4FE75FE7C301B2010E942D1114
:100DC00018161CF46BE671E0E0CF2FEF3FEF4FE712
:100DD0005FE4C501B4010E948413181654F02FEF8C
:100DE0003FEF4FE75FECC501B4010E942D1187FF73
:100DF00003C06FE671E0C9CF20E030E0A901C50172
:100E0000B4010E942D1187FF08C06DE2C8010E9445
:100E10002905B7FAB094B7F8B0942AE037ED43EA61
:100E20005BE3C501B4010E94E9122B013C010E9461
:100E300055134B015C010E9432119B01AC01C301AF
:100E4000B2010E94E8122B013C012AE0B501A40185
:100E5000C8010E94C1056EE2C8010E94290520E078
:100E600030E040E251E4C301B2010E9493112B0132
:100E70003C010E9455134B01A12CB12C2AE0B50175
:100E8000A401C8010E94C105C501B4010E9432112C
:100E90009B01AC01C301B2010E94E81220E030E0E6
:100EA00040E251E40E9493110E945513AB0160E0AF
:100EB00070E059C0883751F08835A9F463E771E0D4
:100EC00080919C0290919D020E94AC057801F2E015
:100ED000EF0EF11CF80140815181052E000C660BCC
:100EE000770B20E118C0823651F08234D9F466E7DE
:100EF00071E080919C0290919D020E94AC05780166
:100F0000F2E0EF0EF11CF80140815181052E000C3A
:100F1000660B770B22E080919C0290919D020E94CB
:100F2000C10536CF8C3609F57801F4E0EF0EF11CDF
:100F3000F80180809180A280B38000919C02109182
:100F40009D02B7FC05C02AE0B501A401C801E7CFA6
:100F50006DE2C8010E94290544275527BA014819A6
:100F600059096A097B092AE0F1CF833669F47801CF
:100F7000F2E0EF0EF11CF801608180919C029091EB
:100F80009D020E94290504CF8437A1F47801F2E084
:100F9000EF0EF11CF8012081318180919C0290912B
:100FA0009D022130310519F469E771E0EFCE6BE75E
:100FB00071E0ECCE8435E9F47801F2E0EF0EF11C3B
:100FC000F8012081318180919C0290919D02213015
:100FD000310519F460E671E002C06AE571E00E9433
:100FE0008805D6CE80919C0290919D020E94290591
:100FF00067017601FFEFEF1AFF0A61CEE091A002D0
:10100000F091A102309729F080919C0290919D026D
:10101000099527960FB6F894DEBF0FBECDBFDF91BE
:10102000CF911F910F91FF90EF90DF90CF90BF90E5
:10103000AF909F908F907F906F905F904F900895AA
:101040009091D8028091D902292F30E0482F50E0AA
:101050006091A202981760F0E091C802F091C90275
:10106000D901A41BB50BEA17FB0758F4891778F0D0
:10107000E091CA02F091CB02421B530BE417F50733
:1010800040F070E0261737075CF4B90109C08E0FF5
:1010900001C08E1B90E070E0861797070CF4BC012E
:1010A0006093D9028091D6020C94540C9091EF0178
:1010B0009111FCCF91E09093EF019093EE012FEF0F
:1010C0002093ED011092EC01260F2093EB019093F9
:1010D000EA019091EA01880F892B8093EA018091BF
:1010E000E901813061F41092E9018091EA01809375
:1010F000BB008091BC0083FDF8CF85EC01C085EE7C
:101100008093BC008091EF018130E1F38091EC018C
:10111000861710F46091EC01A9ECB1E0E9EAF1E086
:1011200080E0861721F09D9191938F5FFACF08950B
:101130003091A801313208F04BC08091EF0181114C
:10114000FCCF9091A70122E02093EF0121E02093B2
:10115000EE012FEF2093ED011092EC013093EB01A3
:10116000E7E8F1E0A9ECB1E020E0321721F041918D
:101170004D932F5FFACF1092EA012091EA01990F67
:10118000922B9093EA019091E901913061F41092D1
:10119000E9019091EA019093BB009091BC0093FD0E
:1011A000F8CF95EC01C095EE9093BC009091EF01C3
:1011B0009230E1F39091ED019F3F79F08091ED0144
:1011C000803241F08091ED01803331F084E005C040
:1011D00081E003C082E001C083E01092860110929A
:1011E000A80110928501089585ED8093BC0080913F
:1011F000BC0084FDFCCF1092EF01089540912F03B5
:10120000262F30E0240F311D21323105DCF42091EE
:10121000EF012430C9F4FC0180E090E0861758F417
:1012200030912F032191DC01A15FBC4FA30FB11DB1
:101230002C930196F3CF80912F03680F60932F03B7
:1012400080E0089581E0089582E00895089508956A
:101250000895E091050380910403E81730F4F0E06D
:10126000E755FE4F808190E008958FEF9FEF08953E
:101270009091050380910403981750F4E92FF0E052
:10128000E755FE4F208130E09F5F9093050302C039
:101290002FEF3FEFC90108958091040390E0209162
:1012A0000503821B91090895CF92DF92EF92FF927E
:1012B0000F931F93CF93DF937C01CB018A01209181
:1012C0008501222389F0EB016B01C40ED51ECC15DC
:1012D000DD0569F06991D701ED91FC910190F081F4
:1012E000E02DC7010995F3CF642F0E94FE08C801C5
:1012F000DF91CF911F910F91FF90EF90DF90CF90F2
:101300000895CF93DF931F92CDB7DEB76983209105
:1013100085012223D1F02091A801203240F021E064
:1013200030E0FC013383228380E090E015C080919F
:101330008601E82FF0E0E957FE4F998190838F5F97
:10134000809386018093A80105C061E0CE010196DB
:101350000E94FE0881E090E00F90DF91CF91089508
:1013600081E08093850188E68093A7011092860131
:101370001092A8016FE080EF91E00E9481090E9425
:10138000980861E088E60E94560810920503809351
:10139000040380EF91E00E94380908958F929F9294
:1013A000AF92BF92CF92DF92EF92FF920F931F9373
:1013B000CF93DF93EC018B017A01FB0161813081D6
:1013C000432F50E0828190E0E5EBF1E021E0261729
:1013D00030F47491870F911D2F5F3196F8CF6330F1
:1013E00018F0337009F401966DE671E0469F9001A4
:1013F000479F300D569F300D1124215031094D5F0C
:101400005F4F5695479556954795240F351F280FE2
:10141000391FA8E1B0E00E949312F80123815B011B
:101420006C01A20EB11CC11CD11CA6019501ACE33C
:10143000B0E00E94511224815B016C01A20EB11C2C
:10144000C11CD11CA60195010E9451122581F701F2
:10145000C080D180E280F380C20ED11CE11CF11C5F
:10146000C60ED71EE81EF91E7CE3872E912CA12CF8
:10147000B12CC701B601A50194010E94AE126D8383
:10148000CA01B901A50194010E94AE126C83C70183
:10149000B60120E13EE040E050E00E94AE12CA01F9
:1014A000B90128E130E040E050E00E94AE126B83C9
:1014B000C701B60120E831E541E050E00E94AE12DC
:1014C00018828881982F937041E050E011F040E03D
:1014D00050E0BA0163597E4F2617370738F0241BB6
:1014E000350B2D5631408F5F8883EBCF81E08983A8
:1014F00089818C3090F4E82FF0E0EC54FE4FE491B9
:10150000911103C0823009F4EF5FF0E02E173F071E
:1015100020F02E1B3F0B8F5FEACF2F5F2A83CE0177
:10152000DF91CF911F910F91FF90EF90DF90CF90BF
:10153000BF90AF909F908F9008951F920F920FB61B
:101540000F9211242F933F934F935F936F937F9349
:101550008F939F93AF93BF93EF93FF938091B900C5
:10156000887F803609F49CC068F5883209F45BC036
:1015700090F4803109F454C038F4882309F4F6C09B
:10158000883009F44DC0F6C0883109F44CC080326F
:1015900009F45DC0EFC0803409F468C048F48033BA
:1015A00009F455C0883309F0E5C08093ED01D8C037
:1015B000803509F44FC0883509F45DC0883409F0DE
:1015C000D9C0D6C0883909F4C7C0A8F4883709F44F
:1015D00067C038F4883609F463C0803709F460C006
:1015E000C9C0883809F4B8C0803909F45FC08038B0
:1015F00009F0C0C05BC0803B09F486C038F4803A73
:1016000009F466C0883A09F47FC0B4C0803C09F48C
:10161000A7C0883C09F4A4C0883B09F48AC0AAC0CA
:101620008091EA0110C09091EC018091EB01981734
:1016300070F5E091EC0181E08E0F8093EC01F0E019
:10164000E753FE4F80818093BB0085EC86C080937A
:10165000ED018EC0E091EC0181E08E0F8093EC01F2
:101660008091BB00F0E0E753FE4F80839091EC0146
:101670008091EB016EC0E091EC0181E08E0F8093D0
:10168000EC018091BB00F0E0E753FE4F8083809136
:10169000EE0181116DC081E08093E90184EA61C0AF
:1016A00083E08093EF0110925103CFCF80915103DB
:1016B000803208F051C0E091510381E08E0F809399
:1016C00051038091BB00F0E0EF5CFC4F8083BDCF05
:1016D00085EC8093BC001092EF0180915103803221
:1016E00030F4E0915103F0E0EF5CFC4F1082609128
:1016F000510370E0E0910203F091030381E393E072
:1017000009951092510336C084E08093EF01109246
:10171000300310922F03E0910003F091010309952B
:1017200080912F03811105C081E080932F031092D7
:101730000F03E091300381E08E0F80933003F0E0DF
:10174000E15FFC4F80818093BB00909130038091DA
:101750002F03981708F479CF85E88093BC000AC05E
:1017600085EC8093BC001092EF0104C01092ED0153
:101770000E94F408FF91EF91BF91AF919F918F91DB
:101780007F916F915F914F913F912F910F900FBE7D
:101790000F901F90189590E0FC01EF55FE4F24919B
:1017A000FC01E357FE4F3491FC01E758FE4FE491F2
:1017B000EE2309F43CC0222339F1233091F038F4B0
:1017C0002130A9F0223001F584B58F7D12C0273079
:1017D00091F02830A1F02430B9F4809180008F7D01
:1017E00003C0809180008F77809380000DC084B506
:1017F0008F7784BD09C08091B0008F7703C080913E
:10180000B0008F7D8093B000F0E0EE0FFF1FE15934
:10181000FE4FA591B4919FB7F894611104C08C91CB
:101820003095382302C0EC913E2B3C939FBF089526
:10183000CF93DF9390E0FC01E357FE4F2491FC012E
:10184000E758FE4F8491882361F190E0880F991F3B
:10185000FC01EB59FE4FC591D491FC01E159FE4FBB
:10186000A591B491611109C09FB7F8948881209522
:1018700082238883EC912E230BC0623061F49FB7E2
:10188000F8948881322F309583238883EC912E2B16
:101890002C939FBF06C08FB7F894E8812E2B288326
:1018A0008FBFDF91CF9108951F93CF93DF93182FB0
:1018B000EB0161E00E94180C209711F460E004C075
:1018C000CF3FD10539F461E0812FDF91CF911F9196
:1018D0000C94CB0BE12FF0E0EF55FE4FE491E33099
:1018E000F9F048F4E130B9F0E230A1F584B5806256
:1018F00084BDC8BD34C0E730E9F0E83019F1E43008
:1019000049F580918000806280938000D0938B00A5
:10191000C0938A0024C084B5806884BDC7BD1FC041
:1019200080918000806880938000D0938900C0936C
:10193000880015C08091B00080688093B000C0938B
:10194000B3000DC08091B00080628093B000C0935E
:10195000B40005C0C038D1050CF0B5CFAFCFDF91D2
:10196000CF911F9108953FB7F89480910B03909108
:101970000C03A0910D03B0910E0326B5A89B05C0E2
:101980002F3F19F00196A11DB11D3FBFBA2FA92FFE
:10199000982F8827820F911DA11DB11DBC01CD017B
:1019A00042E0660F771F881F991F4A95D1F7089567
:1019B0002FB7F89460910703709108038091090391
:1019C00090910A032FBF08951F920F920FB60F92A6
:1019D00011242F933F938F939F93AF93BF93809145
:1019E000070390910803A0910903B0910A03309175
:1019F000060323E0230F2D3720F40196A11DB11D0E
:101A000005C026E8230F0296A11DB11D20930603F1
:101A10008093070390930803A0930903B0930A03EC
:101A200080910B0390910C03A0910D03B0910E03D4
:101A30000196A11DB11D80930B0390930C03A093FD
:101A40000D03B0930E03BF91AF919F918F913F9182
:101A50002F910F900FBE0F901F901895CF93DF938B
:101A6000CDB7DEB7CE56D1090FB6F894DEBF0FBEA4
:101A7000CDBF789484B5826084BD84B5816084BD17
:101A800085B5826085BD85B5816085BD80916E001C
:101A9000816080936E00109281008091810082604D
:101AA000809381008091810081608093810080918A
:101AB00080008160809380008091B1008460809379
:101AC000B1008091B00081608093B00080917A0075
:101AD000846080937A0080917A00826080937A009B
:101AE00080917A00816080937A0080917A0080688A
:101AF00080937A001092C100E0910C02F0910D02E7
:101B000082E08083E0910C02F0910D021082E0915E
:101B10000802F09109021082E0910A02F0910B0292
:101B200080E1808310921402E0911002F091110282
:101B300086E08083E0910E02F0910F028081806147
:101B40008083E0910E02F0910F0280818860808393
:101B5000E0910E02F0910F02808180688083E09115
:101B60000E02F0910F0280818F7D808309E912E0DF
:101B700086E090E090939A0280939902FF24F39478
:101B8000F0929B028CEF91E090939D0280939C02D7
:101B90008EE491E09F938F931F9284E08F931F9325
:101BA0000F930E940A0610920503109204031092EC
:101BB00086011092A8011092EF01F092EE011092AE
:101BC000E90161E082E10E94CB0B61E083E10E94C8
:101BD000CB0B8091B9008E7F8093B9008091B900C2
:101BE0008D7F8093B90088E48093B80085E480936A
:101BF000BC0086E299E0909301038093000387E2A2
:101C000099E09093030380930203F092850188E6A4
:101C10008093A701109286011092A8010E94980853
:101C20000E94B00990E0880F892F881F990B0F90B0
:101C30000F900F900F900F900F909E012F5F3F4FCE
:101C40004901892B79F18DE291E00E941B02898381
:101C500085E08A8388E291E00E941B028B8380E307
:101C600091E00E941B028C8383E391E00E941B029F
:101C70008D8386E391E00E941B028E83C4010E9443
:101C80002A028EE191E09F938F931F9283E08F93BE
:101C90001F930F930E940A060F900F900F900F90C2
:101CA0000F900F90CE018B599F4F0E94C5020E944A
:101CB000D80CAB968FADAB971F928F93AA968FAD32
:101CC000AA971F928F93A9968FADA9971F928F9372
:101CD000A8968FADA8971F928F93A7968FADA797C1
:101CE0001F928F93A6968FADA69790E08053984F42
:101CF0009F938F9389E391E09F938F939F928F920D
:101D00000E9493139F928F9281E191E09F938F9312
:101D10001F9284E0F82EFF9209E912E01F930F93BF
:101D20000E940A061F929EE1E92EEF921F9285E023
:101D30008F9327E5C22E21E0D22EDF92CF923E0173
:101D400031E5630E711C7F926F920E9493130FB660
:101D5000F894DEBF0FBECDBF1F92EF921F9286E1B7
:101D60008F93DF92CF921E019DE3290E311C3F928B
:101D70002F920E9493137F926F9283E091E09F9342
:101D80008F931F92FF921F930F930E940A063F9218
:101D90002F9284EF90E09F938F931F92FF921F9357
:101DA0000F930E940A061F92EF921F928AE08F9370
:101DB00084EC90E09F938F931F92FF921F930F9359
:101DC0000E940A060FB6F894DEBF0FBECDBF60E0DA
:101DD0008EE00E94180C8091F6029091F702892BF8
:101DE00021F18091EE029091EF02019719F40E9487
:101DF000D80C02C00E94B30C6093F8027093F902F1
:101E00008093FA029093FB0281E08093E5021092A6
:101E1000F0021092F1021092F2021092F30281E0AD
:101E200090E09093F5028093F40210928401209147
:101E3000E40230E01092AB021092D4028091A20230
:101E400090E0281739070CF4C9018093D8020E944A
:101E500020080E94D80CAF966CAF7DAF8EAF9FAFBD
:101E6000AF978091D502882309F44BC08091AB02D3
:101E7000882309F446C0AF968CAD9DADAEADBFAD25
:101E8000AF975C016D019C01A60160E070E080E00D
:101E900090E0A090AC02B090AD02C090AE02D090A5
:101EA000AF02E090B002F090B1020091B202109146
:101EB000B3020E94D012A090B402B090B502C090BC
:101EC000B602D090B702E090B802F090B90200914B
:101ED000BA021091BB020E94D91299F090F02091A1
:101EE000E40230E01092AB021092D4028091A20280
:101EF00090E0281739070CF4C9018093D8020E949A
:101F000020089091D9028091D802981709F446C010
:101F10004091DA025091DB026091DC027091DD02A7
:101F2000AF960CAD1DAD2EAD3FADAF97041B150B9D
:101F3000260B370B891758F44091C6025091C702FF
:101F400060E070E0041715072607370768F4981754
:101F500028F58091C4029091C502A0E0B0E0081776
:101F600019072A073B07D0F00E942008AF968CADD6
:101F70009DADAEADBFADAF978C019D018093DA02F0
:101F80001093DB022093DC023093DD021092DE021C
:101F90001092DF021092E0021092E1028091E502BD
:101FA000882309F479C08091EE029091EF020197A5
:101FB00009F50E94D80C0091F8021091F9022091C5
:101FC000FA023091FB02DC01CB01801B910BA20BCA
:101FD000B30B0091E6021091E7022091E8023091E4
:101FE000E90280179107A207B30708F455C00E94C1
:101FF000D80C1FC00E94B30C0091F8021091F90296
:102000002091FA023091FB02DC01CB01801B910B85
:10201000A20BB30B0091E6021091E7022091E802B7
:102020003091E90280179107A207B307A8F10E9437
:10203000B30C6093F8027093F9028093FA029093C4
:10204000FB028091F0029091F102A091F202B09116
:10205000F3024091EA025091EB026091EC02709120
:10206000ED02481B590B6A0B7B0B41305105610592
:10207000710511F41092E5020196A11DB11D809326
:10208000F0029093F102A093F202B093F302E09178
:10209000F602F091F70209958CEF91E00E946A0137
:1020A000892BE9F18CEF91E00E9448018335F9F02A
:1020B0004CF4883491F08D3491F58CE390E0A0E0FD
:1020C000B0E01DC08D3671F08337B1F0883639F538
:1020D00080EF91EFAFEFBFEF12C080E19EE0A0E094
:1020E000B0E00DC084EC9FEFAFEFBFEF08C081E020
:1020F00090E0A0E0B0E003C08FEF9FEFDC01F301C0
:1021000080839183A283B383C4010E94C502A3018B
:10211000B401C1010E94CE09C1010E942A020E949D
:10212000110297CEE0EFF1E01382128248EE53E005
:1021300060E070E0448355836683778384E091E0B8
:1021400091838083ECEFF1E0138212824483558304
:102150006683778386E191E09183808385EC90E0CC
:102160009587848784EC90E09787868780EC90E061
:10217000918B808B81EC90E0938B828B82EC90E052
:10218000958B848B86EC90E0978B868B118E128ECC
:10219000138E148EE9E9F2E01182108281E08283CD
:1021A000148213821682158210861782E5EEF2E001
:1021B00081E090E0928781874183528363837483B7
:1021C000158216821782108622E533E0328B218B2E
:1021D0001082138A148A158A168A13861486158625
:1021E0001686E2EAF2E02FEF208340E050E060E85C
:1021F0007FE341835283638374831582168217823F
:102200001086A2E0B0E0B3A3A2A3A4E1B0E0B5A31E
:10221000A4A397A386A391A780A742A753A764A7C7
:1022200075A716A617A610AA11AA12AA13AA109289
:10223000E2022093E3021092E4028DE090E095AB7D
:1022400084AB88E8828F83E1838F148E158E168E7F
:10225000178E10A211A217AA08950E946F1108F4F8
:1022600081E00895E89409C097FB3EF4909580952D
:10227000709561957F4F8F4F9F4F9923A9F0F92F4C
:1022800096E9BB279395F695879577956795B795CA
:10229000F111F8CFFAF4BB0F11F460FF1BC06F5FB0
:1022A0007F4F8F4F9F4F16C0882311F096E911C0C2
:1022B000772321F09EE8872F762F05C0662371F0E3
:1022C00096E8862F70E060E02AF09A95660F771FF7
:1022D000881FDAF7880F9695879597F90895990FD3
:1022E0000008550FAA0BE0E8FEEF16161706E807E0
:1022F000F907C0F012161306E407F50798F0621B01
:10230000730B840B950B39F40A2661F0232B242BD5
:10231000252B21F408950A2609F4A140A6958FEFF4
:10232000811D811D08950E94A6110C9417120E9410
:10233000091238F00E94101220F0952311F00C942D
:1023400000120C94061211240C944B120E942812B5
:1023500070F3959FC1F3950F50E0551F629FF001F8
:10236000729FBB27F00DB11D639FAA27F00DB11D11
:10237000AA1F649F6627B00DA11D661F829F22279A
:10238000B00DA11D621F739FB00DA11D621F839F21
:10239000A00D611D221F749F3327A00D611D231FF7
:1023A000849F600D211D822F762F6A2F11249F5745
:1023B00050409AF0F1F088234AF0EE0FFF1FBB1F48
:1023C000661F771F881F91505040A9F79E3F510507
:1023D00080F00C9400120C944B125F3FE4F3983E93
:1023E000D4F3869577956795B795F795E7959F5FB1
:1023F000C1F7FE2B880F911D9695879597F9089543
:1024000097F99F6780E870E060E008959FEF80ECA7
:10241000089500240A94161617061806090608954A
:1024200000240A9412161306140605060895092EB0
:102430000394000C11F4882352F0BB0F40F4BF2B1F
:1024400011F460FF04C06F5F7F4F8F4F9F4F08955F
:1024500057FD9058440F551F59F05F3F71F0479555
:10246000880F97FB991F61F09F3F79F0879508953A
:10247000121613061406551FF2CF4695F1DF08C059
:10248000161617061806991FF1CF86957105610576
:1024900008940895E894BB2766277727CB0197F91E
:1024A00008950E949312A59F900DB49F900DA49F34
:1024B000800D911D112408952F923F924F925F92AB
:1024C0006F927F928F929F92AF92BF92CF92DF9244
:1024D000EF92FF920F931F93CF93DF93CDB7DEB7A9
:1024E000CA1BDB0B0FB6F894DEBF0FBECDBF09943D
:1024F0002A88398848885F846E847D848C849B8494
:10250000AA84B984C884DF80EE80FD800C811B81A1
:10251000AA81B981CE0FD11D0FB6F894DEBF0FBED0
:10252000CDBFED010895A29FB001B39FC001A39F4D
:10253000700D811D1124911DB29F700D811D1124FC
:10254000911D0895991B79E004C0991F961708F012
:10255000961B881F7A95C9F780950895A1E21A2ED7
:10256000AA1BBB1BFD010DC0AA1FBB1FEE1FFF1F37
:10257000A217B307E407F50720F0A21BB30BE40B87
:10258000F50B661F771F881F991F1A9469F76095CE
:102590007095809590959B01AC01BD01CF01089588
:1025A0002A193B094C095D096E097F09800B910BC3
:1025B00008952A153B054C055D056E057F058007CE
:1025C00091070895EE0FFF1F0590F491E02D0994F7
:1025D0005058BB27AA270E9400130C9417120E9480
:1025E000091238F00E94101220F039F49F3F19F4BC
:1025F00026F40C9406120EF4E095E7FB0C940012FE
:10260000E92F0E94281258F3BA176207730784074C
:10261000950720F079F4A6F50C944A120EF4E09593
:102620000B2EBA2FA02D0B01B90190010C01CA018C
:10263000A0011124FF27591B99F0593F50F4503E37
:1026400068F11A16F040A22F232F342F4427585F29
:10265000F3CF469537952795A795F0405395C9F741
:102660007EF41F16BA0B620B730B840BBAF09150F9
:10267000A1F0FF0FBB1F661F771F881FC2F70EC098
:10268000BA0F621F731F841F48F48795779567956B
:10269000B795F7959E3F08F0B0CF9395880F08F057
:1026A0009927EE0F9795879508950E94301288F02C
:1026B0009F5798F0B92F9927B751B0F0E1F0660F06
:1026C000771F881F991F1AF0BA95C9F714C0B13047
:1026D00091F00E944A12B1E008950C944A12672FBB
:1026E000782F8827B85F39F0B93FCCF38695779576
:1026F0006795B395D9F73EF490958095709561955F
:102700007F4F8F4F9F4F08950E946F1108F48FEFF6
:1027100008950E946F11880B990B089581E090E055
:10272000F8940C944616AEE0B0E0E9E9F3E10C94BD
:102730006A120D891E8986E08C831A8309838FEFC4
:102740009FE79E838D83AE01475E5F4F6F89788DD3
:10275000CE0101960E94B513EF81F885E00FF11FBD
:1027600010822E96E4E00C948612ABE0B0E0EBEB26
:10277000F3E10C945C126C017B018A01FC0117826D
:102780001682838181FFCCC1CE0101963C01F60106
:102790009381F70193FD859193FF81917F018823B8
:1027A00009F4BAC1853239F493FD859193FF819183
:1027B0007F01853229F4B60190E00E94AC15E7CF85
:1027C000912C212C312CFFE1F315D8F08B3279F0CC
:1027D00038F4803279F08332A1F4232D20611DC0BA
:1027E0008D3261F0803369F4232D216016C0832D72
:1027F0008260382EE32DE4603E2E2AC0F32DF8606F
:102800001DC037FC2DC020ED280F2A3040F08E323D
:10281000B9F436FC81C1232D2064322E19C036FE56
:1028200006C08AE0989E200D1124922E11C0EAE085
:102830002E9E200D1124222EF32DF0623F2E08C073
:102840008C3621F4832D8068382E02C0883641F4FE
:10285000F70193FD859193FF81917F018111B3CFA2
:10286000982F9F7D9554933028F40C5F1F4F9FE362
:1028700099830DC0833631F0833771F0833509F0C9
:1028800059C021C0F801808189830E5F1F4F8824C1
:102890008394912C530113C02801F2E04F0E511C78
:1028A000F801A080B18036FE03C0692D70E002C03F
:1028B0006FEF7FEFC5010E94A1154C018201F32D3E
:1028C000FF773F2E16C0280122E0420E511CF8016E
:1028D000A080B18036FE03C0692D70E002C06FEFAA
:1028E0007FEFC5010E9496154C01F32DF0683F2E35
:1028F000820133FC1BC0822D90E088169906B0F44B
:10290000B60180E290E00E94AC152A94F4CFF50164
:1029100037FC859137FE81915F01B60190E00E94FE
:10292000AC1521102A9421E0821A91088114910497
:1029300071F7E8C0843611F0893641F5F80137FEA9
:1029400007C060817181828193810C5F1F4F08C035
:1029500060817181072E000C880B990B0E5F1F4F51
:10296000F32DFF763F2E97FF09C0909580957095C7
:1029700061957F4F8F4F9F4FF0683F2E2AE030E0E8
:10298000A3010E94E815882E861845C0853731F4CA
:10299000232D2F7EB22E2AE030E025C0932D997F83
:1029A000B92E8F36C1F018F4883579F0B5C080376C
:1029B00019F0883721F0B0C0E92FE061BE2EB4FED7
:1029C0000DC0FB2DF460BF2E09C034FE0AC0292FB4
:1029D0002660B22E06C028E030E005C020E130E0DD
:1029E00002C020E132E0F801B7FE07C060817181CA
:1029F000828193810C5F1F4F06C06081718180E0EE
:102A000090E00E5F1F4FA3010E94E815882E8618E4
:102A1000FB2DFF773F2E36FE0DC0232D2E7FA22EDD
:102A2000891458F434FE0BC032FC09C0832D8E7E0D
:102A3000A82E05C0B82CA32C03C0B82C01C0B92CFB
:102A4000A4FE0FC0FE01E80DF11D8081803321F44A
:102A50009A2D997EA92E09C0A2FE06C0B394B39404
:102A600004C08A2D867809F0B394A3FC11C0A0FE9F
:102A700006C0B21488F4280C922C9B180EC0B21415
:102A800060F4B60180E290E00E94AC15B394F7CFF9
:102A9000B21418F42B1802C0982C212CA4FE10C0DC
:102AA000B60180E390E00E94AC15A2FE17C0A1FC25
:102AB00003C088E790E002C088E590E0B6010CC052
:102AC0008A2D867859F0A1FE02C08BE201C080E217
:102AD000A7FC8DE2B60190E00E94AC15891438F491
:102AE000B60180E390E00E94AC159A94F7CF8A94E7
:102AF000F301E80DF11D8081B60190E00E94AC1554
:102B00008110F5CF222009F442CEB60180E290E098
:102B10000E94AC152A94F6CFF6018681978102C0F7
:102B20008FEF9FEF2B96E2E10C947812FC01059059
:102B3000615070400110D8F7809590958E0F9F1FBF
:102B40000895FC016150704001900110D8F7809504
:102B500090958E0F9F1F08950F931F93CF93DF9330
:102B6000FB01238121FD03C08FEF9FEF2CC022FFCB
:102B700016C046815781248135814217530744F49A
:102B8000A081B1819D012F5F3F4F318320838C93C2
:102B9000268137812F5F3F4F3783268314C08B01F7
:102BA000EC01FB010084F185E02D0995892BE1F60C
:102BB000D80116968D919C911797019617969C9324
:102BC0008E931697CE01DF91CF911F910F910895AB
:102BD000FA01AA27283051F1203181F1E8946F934E
:102BE0006E7F6E5F7F4F8F4F9F4FAF4FB1E03ED0F4
:102BF000B4E03CD0670F781F891F9A1FA11D680F92
:102C0000791F8A1F911DA11D6A0F711D811D911DC4
:102C1000A11D20D009F468943F912AE0269F112439
:102C20003019305D3193DEF6CF010895462F47709D
:102C3000405D4193B3E00FD0C9F7F6CF462F4F70F8
:102C4000405D4A3318F0495D31FD4052419302D056
:102C5000A9F7EACFB4E0A6959795879577956795FC
:102C6000BA95C9F700976105710508959B01AC01FC
:102C70000A2E06945795479537952795BA95C9F723
:102C8000620F731F841F951FA01D0895F894FFCF36
:102C90000000000081095409360128094C0938094F
:102CA000290900000000A2010B013901EF016A01AE
:102CB00048015C014D6179203135203230323000DD
:102CC00031373A31373A343300253034642D2530EA
:102CD00032642D2530326420253032643A2530327A
:102CE000643A2530326400253032643A253032644B
:102CF0003A3030003A20006E616E00696E66006FF7
:102D00007666003078003062005400460046455731
:042D10004E545600C7
:00000001FF
