:100000000C94DB000C9403010C9403010C94030189
:100010000C9403010C9403010C9403010C94030150
:100020000C9403010C9403010C9403010C94030140
:100030000C9403010C9403010C9403010C94030130
:100040000C94740B0C9403010C94B5040C948F0461
:100050000C9403010C9403010C9403010C94030110
:100060000C942D090C94030154696D652063686537
:10007000636B3A092573202D2025540A004C445205
:10008000206C6576656C3A202564202D2025540A65
:10009000004C616D702073746174653A2025540AB8
:1000A000004C616D7020646561637469766174658C
:1000B000640A004C616D70206163746976617465D7
:1000C000640A00416D6269656E74206C69676874CA
:1000D000207468726573686F6C64733A20096C6F82
:1000E00077202D2025640968696768202D20256404
:1000F0000A0A004F66662074696D653A2009257307
:100100000A004F6E2074696D653A200925730A0054
:1001100054696D65206973200925730A00525443A0
:10012000206C6F737420706F7765723B20736574F9
:1001300074696E672074696D6520746F20636F6DDC
:1001400070696C652074696D652E2E2E00576F7274
:100150006B696E672E2E2E0A0066616C73650074E3
:100160007275650000000000240027002A000000CE
:100170000000250028002B000404040404040404E7
:100180000202020202020303030303030102040842
:1001900010204080010204081020010204081020F1
:1001A0000000000800020100000304070000000036
:1001B000000000002D0F11241FBECFEFD8E0DEBFDE
:1001C000CDBF23E0A6E7B1E001C01D92A434B20781
:1001D000E1F711E0A0E0B1E0E2E9F9E202C0059048
:1001E0000D92A637B107D9F710E0CBEDD0E004C0EF
:1001F0002197FE010E946311CA3DD107C9F70E94F1
:10020000BE0B0C94C7140C940000CF92DF92EF92B7
:10021000FF920F931F93CF93DF936C017A018B01B1
:10022000C0E0D0E0CE15DF0581F0D8016D918D01E1
:10023000D601ED91FC910190F081E02DC601099568
:10024000892B11F02196EECF7E01C701DF91CF916E
:100250001F910F91FF90EF90DF90CF900895089538
:1002600080E090E00895FC01538D448D252F30E00F
:10027000842F90E0821B930B541710F0CF960895B3
:1002800001970895FC01918D828D981761F0828D00
:10029000DF01A80FB11D5D968C91928D9F5F9F73BA
:1002A000928F90E008958FEF9FEF0895FC01918D5C
:1002B000828D981731F0828DE80FF11D858D90E0C9
:1002C00008958FEF9FEF0895FC01918D228D892F66
:1002D00090E0805C9F4F821B91098F73992708954E
:1002E0008EEE91E00E94640121E0892B09F420E068
:1002F000822F0895FC01848DDF01A80FB11DA35A40
:10030000BF4F2C91848D90E001968F739927848F35
:10031000A689B7892C93A089B1898C918370806458
:100320008C93938D848D981306C00288F389E02DF9
:1003300080818F7D80830895EF92FF920F931F93AA
:10034000CF93DF93EC0181E0888F9B8D8C8D981388
:1003500005C0E889F989808185FD26C0F62E0B8DC0
:1003600010E00F5F1F4F0F731127E02E8C8DE812E6
:100370000CC00FB607FCFACFE889F989808185FFA8
:10038000F5CFCE010E947A01F1CF8B8DFE01E80FEF
:10039000F11DE35AFF4FF0829FB7F8940B8FEA8963
:1003A000FB89808180620AC09FB7F894EE89FF893B
:1003B0006083E889F98980818370806480839FBF2E
:1003C00081E090E0DF91CF911F910F91FF90EF902E
:1003D0000895CF93DF93EC01888D8823C9F0EA89D3
:1003E000FB89808185FD05C0A889B9898C9186FD2E
:1003F0000FC00FB607FCF5CF808185FFF2CFA8892B
:10040000B9898C9185FFEDCFCE010E947A01E7CFAB
:10041000DF91CF91089580E090E0892B29F00E9430
:10042000700181110C9400000895FC01908190539B
:100430009A3008F090E0818180532AE0929F800DED
:10044000112408950E940F12CF92DF92EF92FF9233
:100450000F931F93CF93DF93EC0181E0809377019B
:1004600088E6809399011092780110929A0160E0D9
:1004700082EE91E00E94E0080E94F70767E088E6BC
:100480000E94B5071092F7028093F60282EE91E087
:100490000E9497088F77982F92959F701AEF082FD8
:1004A000919F000D112482EE91E00E9497089C011B
:1004B000332794E0359527959A95E1F7F82E129F0A
:1004C000F00C112482EE91E00E9497089C013327E2
:1004D00044E0359527954A95E1F7E82E129FE00C08
:1004E000112482EE91E00E94970882EE91E00E9432
:1004F00097089C01332754E0359527955A95E1F7E5
:10050000D82E129FD00C112482EE91E00E94970801
:100510009C01332764E0359527956A95E1F7C82E4D
:10052000129FC00C112482EE91E00E9497089C015A
:10053000332774E0359527957A95E1F7129F800D62
:1005400011248883C982DA82EB82FC820D83CE017A
:10055000DF91CF911F910F91FF90EF90DF90CF909F
:1005600008954F925F926F927F928F929F92AF9277
:10057000BF92CF92DF92EF92FF920F931F93CF9390
:10058000DF93CDB7DEB7AE970FB6F894DEBF0FBEE0
:10059000CDBFCE0189960E9424028CA59DA58630F0
:1005A00030F4853049F411E09E3158F405C08631AD
:1005B00008F4ACC1863111F010E003C011E09E31A7
:1005C000D8F72EA51F922F931F929F931F928F9360
:1005D00084E291E09F938F93CE0101967C019F93DB
:1005E0008F930E9414121F921F93FF92EF9288E63E
:1005F00090E09F938F931F9286E08F938BE892E019
:100600009F938F930E94690580E480937C00809182
:100610007A00806480937A000FB6F894DEBF0FBE34
:10062000CDBF80917A00982F9074B92E86FDF9CFB6
:10063000809178002091790090E0922B20917601B2
:1006400001E0222321F08E3191052CF003C08A3085
:1006500091050CF000E01F920F939F938F938DE70D
:1006600090E09F938F931F9286E08F938BE892E0A8
:100670009F938F930E94690510230FB6F894DEBFF5
:100680000FBECDBF80917601811709F412C11123ED
:1006900009F4E8C08091D402811198C061E0809192
:1006A000C8020E94A80A00919402602F70E080E0C6
:1006B00090E00E94CF0F6B017C012091BE0230912F
:1006C000BF024091C0025091C1020E942E102B0126
:1006D0003C0120E030E0A9010E94C80F87FD0DC059
:1006E000A3019201C701B6010E94C80F87FD07C090
:1006F000C301B2010E94D61103C060E001C0602FA7
:100700006093D5022091C2023091C3024091C4028D
:100710005091C502C701B6010E942E102B013C0169
:1007200020E030E0A9010E94C80F87FD0FC0A3019F
:100730009201C701B6010E94C80F87FD06C0C30120
:10074000B2010E94D611B62E01C0B02EB092D602D0
:1007500081E08093D4028091C602811126C00E945C
:10076000680B4B015C0160939E0290929F02A092E5
:10077000A002B092A1021092A2021092A3021092C3
:10078000A4021092A50288EE8093A60283E08093D3
:10079000A7021092A8021092A9021092AA02109227
:1007A000AB021092AC021092AD0281E080939D02E8
:1007B0008091D5022091940230E090E0281739070B
:1007C0000CF4C9018093CA020E947F078091C6027F
:1007D000811134C00E94680B4B015C0160939E0242
:1007E00090929F02A092A002B092A1021092A20247
:1007F0001092A3021092A4021092A5028091AE0260
:100800008093A6028091AF028093A7028091B002EC
:100810008093A8028091B1028093A9028091B202D4
:100820008093AA028091B3028093AB028091B402BC
:100830008093AC028091B5028093AD0281E08093F9
:100840009D028091D5022091940230E090E028171B
:1008500039070CF4C9018093CA020E947F0783EB19
:1008600090E014C02091D60230E010929D021092C8
:10087000C6028091940290E0281739070CF4C90150
:100880008093CA020E947F0781EA90E09F938F9332
:100890001F9284E08F938BE892E09F938F930E9446
:1008A00069050F900F900F900F900F900F9010937D
:1008B0007601809176011F928F9381E990E09F935A
:1008C0008F931F9286E08F938BE892E09F938F9394
:1008D0000E9469050FB6F894DEBF0FBECDBFAE967D
:1008E0000FB6F894DEBF0FBECDBFDF91CF911F9141
:1008F0000F91FF90EF90DF90CF90BF90AF909F90BF
:100900008F907F906F905F904F90089511E059CE37
:10091000DC01ED91FC910190F081E02D09941F9292
:100920000F920FB60F9211242F933F934F935F9323
:100930006F937F938F939F93AF93BF93EF93FF93A7
:100940008EEE91E00E947A01FF91EF91BF91AF91FD
:100950009F918F917F916F915F914F913F912F91D7
:100960000F900FBE0F901F9018951F920F920FB609
:100970000F9211242F938F939F93EF93FF93E09106
:10098000FE01F091FF018081E0910402F0910502E7
:1009900082FD12C09081809107028F5F8F7320913A
:1009A0000802821751F0E0910702F0E0E251FE4F99
:1009B000958F8093070201C08081FF91EF919F91F5
:1009C0008F912F910F900FBE0F901F901895EF925F
:1009D000FF920F931F93CF93DF938C017B01C0E0B5
:1009E000D0E0F701EC0FFD1F6491662361F0D801A0
:1009F000ED91FC910190F081E02DC8010995892BC2
:100A000011F02196EECFCE01DF91CF911F910F9182
:100A1000FF90EF9008956115710579F0FB01019049
:100A20000020E9F73197AF01461B570BDC01ED9130
:100A3000FC910280F381E02D099480E090E008951C
:100A40008F929F92AF92BF92EF92FF920F931F935C
:100A5000CF93DF93CDB7DEB7A1970FB6F894DEBF83
:100A60000FBECDBF7C01FA01CB0119A2223008F4E0
:100A70002AE08E010F5D1F4F822E912CA12CB12CEC
:100A8000BF01A50194010E942F11F901CA01015073
:100A900011096A3014F4605D01C0695CD8016C937F
:100AA000232B242B252B61F7B801C7010E940B05CE
:100AB000A1960FB6F894DEBF0FBECDBFDF91CF91E8
:100AC0001F910F91FF90EF90BF90AF909F908F90EC
:100AD00008954F925F926F927F928F929F92AF9202
:100AE000BF92CF92DF92EF92FF920F931F93CF931B
:100AF000DF93CDB7DEB727970FB6F894DEBF0FBEF2
:100B0000CDBF0C8D1D8DCE8CDF8C80918B02909192
:100B10008C02801791070CF4DBC1E0919002F091F8
:100B20009102309729F080918E0290918F02099561
:100B300080918D028823D9F087E0EEE6F1E0DE01B6
:100B4000119601900D928A95E1F7FE01E00FF11FD9
:100B5000608180918E0290918F020E94880465E5E9
:100B600071E080918E0290918F020E940B058E01A0
:100B7000005E1F4F76018FEFE81AF80AF6016491C4
:100B8000662309F49AC1653209F08BC16701FFEF52
:100B9000CF1ADF0AF7018491882309F489C18532CD
:100BA00039F480918E0290918F020E94880480C156
:100BB000833761F47801F2E0EF0EF11CF8016081F7
:100BC000718180918E0290918F023FC0833561F4D4
:100BD0007801F2E0EF0EF11CF801608171818091E3
:100BE0008E0290918F025AC1843611F0893681F4B9
:100BF0007801F2E0EF0EF11CF80180809180009105
:100C00008E0210918F02092C000CAA08BB08F8C0B4
:100C1000982F9D7F943409F0ACC07801F4E0EF0E7A
:100C2000F11CF80180809180A280B38000918E0237
:100C300010918F02A5019401C501B4010E940A120E
:100C4000882339F068E571E0C8010E940B0587012F
:100C50002FC124013501E89477F82FEF3FEF4FE7DC
:100C60005FE7C301B2010E940A1281110DC02FEF8C
:100C70003FEF4FE75FE7C301B2010E94C80F1816AC
:100C80001CF46CE571E0E0CF2FEF3FEF4FE75FE43E
:100C9000C501B4010E940512181654F02FEF3FEF62
:100CA0004FE75FECC501B4010E94C80F87FF03C086
:100CB00060E671E0C9CF20E030E0A901C501B401D0
:100CC0000E94C80F87FF08C06DE2C8010E94880417
:100CD000B7FAB094B7F8B0942AE037ED43EA5BE393
:100CE000C501B4010E946A112B013C010E94D6117A
:100CF0004B015C010E94CD0F9B01AC01C301B2010D
:100D00000E9469112B013C012AE0B501A401C80130
:100D10000E9420056EE2C8010E94880420E030E0B5
:100D200040E251E4C301B2010E942E102B013C01AC
:100D30000E94D6114B01A12CB12C2AE0B501A401CF
:100D4000C8010E942005C501B4010E94CD0F9B017E
:100D5000AC01C301B2010E94691120E030E040E221
:100D600051E40E942E100E94D611AB0160E070E0A9
:100D700059C0883751F08835A9F464E671E0809154
:100D80008E0290918F020E940B057801F2E0EF0E27
:100D9000F11CF80140815181052E000C660B770B88
:100DA00020E118C0823651F08234D9F467E671E050
:100DB00080918E0290918F020E940B057801F2E0E3
:100DC000EF0EF11CF80140815181052E000C660BDD
:100DD000770B22E080918E0290918F020E94200575
:100DE00036CF8C3609F57801F4E0EF0EF11CF801EE
:100DF00080809180A280B38000918E0210918F023A
:100E0000B7FC05C02AE0B501A401C801E7CF6DE237
:100E1000C8010E94880444275527BA014819590976
:100E20006A097B092AE0F1CF833669F47801F2E0A0
:100E3000EF0EF11CF801608180918E0290918F027B
:100E40000E94880404CF8437A1F47801F2E0EF0E09
:100E5000F11CF8012081318180918E0290918F02E6
:100E60002130310519F46AE671E0EFCE6CE671E0ED
:100E7000ECCE8435E9F47801F2E0EF0EF11CF801D4
:100E80002081318180918E0290918F022130310535
:100E900019F46FE571E002C069E571E00E94E704B2
:100EA000D6CE80918E0290918F020E9488046701B5
:100EB0007601FFEFEF1AFF0A61CEE0919202F09106
:100EC0009302309729F080918E0290918F020995BC
:100ED00027960FB6F894DEBF0FBECDBFDF91CF913E
:100EE0001F910F91FF90EF90DF90CF90BF90AF9048
:100EF0009F908F907F906F905F904F90089590910A
:100F0000CA028091CB02292F30E0482F50E0609137
:100F10009402981760F0E091BA02F091BB02D901F7
:100F2000A41BB50BEA17FB0758F4891778F0E0917A
:100F3000BC02F091BD02421B530BE417F50740F0D1
:100F400070E0261737075CF4B90109C08E0F01C0A5
:100F50008E1B90E070E0861797070CF4BC0160933D
:100F6000CB028091C8020C94E40A9091E1019111A6
:100F7000FCCF91E09093E1019093E0012FEF20935B
:100F8000DF011092DE01260F2093DD019093DC013A
:100F90009091DC01880F892B8093DC018091DB012B
:100FA000813061F41092DB018091DC018093BB0001
:100FB0008091BC0083FDF8CF85EC01C085EE809365
:100FC000BC008091E1018130E1F38091DE01861760
:100FD00010F46091DE01ABEBB1E0EBE9F1E080E011
:100FE000861721F09D9191938F5FFACF08953091EC
:100FF0009A01313208F04BC08091E1018111FCCFA0
:101000009091990122E02093E10121E02093E001F9
:101010002FEF2093DF011092DE013093DD01E9E72D
:10102000F1E0ABEBB1E020E0321721F041914D93BC
:101030002F5FFACF1092DC012091DC01990F922BE7
:101040009093DC019091DB01913061F41092DB010F
:101050009091DC019093BB009091BC0093FDF8CF80
:1010600095EC01C095EE9093BC009091E101923017
:10107000E1F39091DF019F3F79F08091DF018032B1
:1010800041F08091DF01803331F084E005C081E0E0
:1010900003C082E001C083E01092780110929A01AF
:1010A00010927701089585ED8093BC008091BC007B
:1010B00084FDFCCF1092E101089540912103262F79
:1010C00030E0240F311D21323105DCF42091E101A3
:1010D0002430C9F4FC0180E090E0861758F4309188
:1010E00021032191DC01AF5FBC4FA30FB11D2C93F5
:1010F0000196F3CF80912103680F6093210380E074
:10110000089581E0089582E008950895089508956E
:10111000E091F7028091F602E81730F4F0E0E5562E
:10112000FE4F808190E008958FEF9FEF089590919A
:10113000F7028091F602981750F4E92FF0E0E55697
:10114000FE4F208130E09F5F9093F70202C02FEFA7
:101150003FEFC90108958091F60290E02091F702D7
:10116000821B91090895CF92DF92EF92FF920F9325
:101170001F93CF93DF937C01CB018A0120917701EC
:10118000222389F0EB016B01C40ED51ECC15DD05C1
:1011900069F06991D701ED91FC910190F081E02D0A
:1011A000C7010995F3CF642F0E945D08C801DF9144
:1011B000CF911F910F91FF90EF90DF90CF90089506
:1011C000CF93DF931F92CDB7DEB76983209177016C
:1011D0002223D1F020919A01203240F021E030E02A
:1011E000FC013383228380E090E015C08091780178
:1011F000E82FF0E0E758FE4F998190838F5F80934E
:10120000780180939A0105C061E0CE0101960E94A9
:101210005D0881E090E00F90DF91CF91089581E02B
:101220008093770188E6809399011092780110925B
:101230009A016FE082EE91E00E94E0080E94F707B9
:1012400061E088E60E94B5071092F7028093F602EB
:1012500082EE91E00E94970808951F920F920FB6B8
:101260000F9211242F933F934F935F936F937F932C
:101270008F939F93AF93BF93EF93FF938091B900A8
:10128000887F803609F49CC068F5883209F45BC019
:1012900090F4803109F454C038F4882309F4F6C07E
:1012A000883009F44DC0F6C0883109F44CC0803252
:1012B00009F45DC0EFC0803409F468C048F480339D
:1012C00009F455C0883309F0E5C08093DF01D8C028
:1012D000803509F44FC0883509F45DC0883409F0C1
:1012E000D9C0D6C0883909F4C7C0A8F4883709F432
:1012F00067C038F4883609F463C0803709F460C0E9
:10130000C9C0883809F4B8C0803909F45FC0803892
:1013100009F0C0C05BC0803B09F486C038F4803A55
:1013200009F466C0883A09F47FC0B4C0803C09F46F
:10133000A7C0883C09F4A4C0883B09F48AC0AAC0AD
:101340008091DC0110C09091DE018091DD01981741
:1013500070F5E091DE0181E08E0F8093DE01F0E018
:10136000E554FE4F80818093BB0085EC86C080935E
:10137000DF018EC0E091DE0181E08E0F8093DE01FF
:101380008091BB00F0E0E554FE4F80839091DE0138
:101390008091DD016EC0E091DE0181E08E0F8093CF
:1013A000DE018091BB00F0E0E554FE4F8083809128
:1013B000E00181116DC081E08093DB0184EA61C0AE
:1013C00083E08093E10110924303CFCF80914303E8
:1013D000803208F051C0E091430381E08E0F80938A
:1013E00043038091BB00F0E0ED5DFC4F8083BDCFF7
:1013F00085EC8093BC001092E10180914303803220
:1014000030F4E0914303F0E0ED5DFC4F1082609119
:10141000430370E0E091F402F091F50283E293E07F
:1014200009951092430336C084E08093E101109245
:10143000220310922103E091F202F091F302099548
:1014400080912103811105C081E0809321031092D6
:101450000103E091220381E08E0F80932203F0E0EC
:10146000EF5FFC4F80818093BB00909122038091BD
:101470002103981708F479CF85E88093BC000AC04F
:1014800085EC8093BC001092E10104C01092DF0152
:101490000E945308FF91EF91BF91AF919F918F915F
:1014A0007F916F915F914F913F912F910F900FBE60
:1014B0000F901F90189590E0FC01E056FE4F24918C
:1014C000FC01E457FE4F3491FC01E858FE4FE491D3
:1014D000EE2309F43CC0222339F1233091F038F493
:1014E0002130A9F0223001F584B58F7D12C027305C
:1014F00091F02830A1F02430B9F4809180008F7DE4
:1015000003C0809180008F77809380000DC084B5E8
:101510008F7784BD09C08091B0008F7703C0809120
:10152000B0008F7D8093B000F0E0EE0FFF1FE25916
:10153000FE4FA591B4919FB7F894611104C08C91AE
:101540003095382302C0EC913E2B3C939FBF089509
:10155000CF93DF9390E0FC01E457FE4F2491FC0110
:10156000E858FE4F8491882361F190E0880F991F1D
:10157000FC01EC59FE4FC591D491FC01E259FE4F9C
:10158000A591B491611109C09FB7F8948881209505
:1015900082238883EC912E230BC0623061F49FB7C5
:1015A000F8948881322F309583238883EC912E2BF9
:1015B0002C939FBF06C08FB7F894E8812E2B288309
:1015C0008FBFDF91CF9108951F93CF93DF93182F93
:1015D000EB0161E00E94A80A209711F460E004C0CA
:1015E000CF3FD10539F461E0812FDF91CF911F9179
:1015F0000C945B0AE12FF0E0E056FE4FE491E330FB
:10160000F9F048F4E130B9F0E230A1F584B5806238
:1016100084BDC8BD34C0E730E9F0E83019F1E430EA
:1016200049F580918000806280938000D0938B0088
:10163000C0938A0024C084B5806884BDC7BD1FC024
:1016400080918000806880938000D0938900C0934F
:10165000880015C08091B00080688093B000C0936E
:10166000B3000DC08091B00080628093B000C09341
:10167000B40005C0C038D1050CF0B5CFAFCFDF91B5
:10168000CF911F9108953FB7F8948091FD029091FA
:10169000FE02A091FF02B091000326B5A89B05C0F1
:1016A0002F3F19F00196A11DB11D3FBFBA2FA92FE1
:1016B000982F8827820F911DA11DB11DBC01CD015E
:1016C00042E0660F771F881F991F4A95D1F708954A
:1016D0002FB7F8946091F9027091FA028091FB02A1
:1016E0009091FC022FBF08951F920F920FB60F9298
:1016F00011242F933F938F939F93AF93BF93809128
:10170000F9029091FA02A091FB02B091FC02309193
:10171000F80223E0230F2D3720F40196A11DB11DFF
:1017200005C026E8230F0296A11DB11D2093F802E3
:101730008093F9029093FA02A093FB02B093FC020B
:101740008091FD029091FE02A091FF02B0910003F2
:101750000196A11DB11D8093FD029093FE02A093FE
:10176000FF02B0930003BF91AF919F918F913F9182
:101770002F910F900FBE0F901F901895CF93DF936E
:10178000CDB7DEB7C655D1090FB6F894DEBF0FBE90
:10179000CDBF789484B5826084BD84B5816084BDFA
:1017A00085B5826085BD85B5816085BD80916E00FF
:1017B000816080936E001092810080918100826030
:1017C000809381008091810081608093810080916D
:1017D00080008160809380008091B100846080935C
:1017E000B1008091B00081608093B00080917A0058
:1017F000846080937A0080917A00826080937A007E
:1018000080917A00816080937A0080917A0080686C
:1018100080937A001092C100E091FE01F091FF01E7
:1018200082E08083E091FE01F091FF011082E0915F
:10183000FA01F091FB011082E091FC01F091FD01B1
:1018400080E1808310920602E0910202F09103028F
:1018500086E08083E0910002F09101028081806146
:101860008083E0910002F091010280818860808392
:10187000E0910002F0910102808180688083E09114
:101880000002F091010280818F7D80834BE8642EFD
:1018900042E0742E86E090E090938C0280938B025D
:1018A00001E000938D028EEE91E090938F02809381
:1018B0008E028DE491E09F938F931F9284E08F932B
:1018C0007F926F920E9469051092F7021092F602C1
:1018D0001092780110929A011092E1010093E001B8
:1018E0001092DB0161E082E10E945B0A61E083E12A
:1018F0000E945B0A8091B9008E7F8093B90080912D
:10190000B9008D7F8093B90088E48093B80085E4A6
:101910008093BC0085E898E09093F3028093F202F4
:1019200086E898E09093F5028093F40200937701A3
:1019300058E6552E509299011092780110929A0112
:101940000E94F7070E940F0990E0880F892F881FD7
:10195000990B0F900F900F900F900F900F90892B75
:1019600009F4A2C08CE391E00E941502182F87E3CE
:1019700091E00E941502F82E8FE391E00E9415027B
:10198000E82E82E491E00E941502D82E85E491E0D1
:101990000E941502C82E009377015092990110926F
:1019A000780110929A0160E082EE91E00E94E008D6
:1019B0003AE0432E8C2D642D0E942311682F660F70
:1019C000860F880F682F6C0D82EE91E00E94E00870
:1019D0008D2D642D0E942311682F660F860F880FAE
:1019E000682F6D0D82EE91E00E94E0088E2D642D2F
:1019F0000E942311682F660F860F880F682F6E0DC7
:101A000082EE91E00E94E00860E082EE91E00E94A8
:101A1000E0088F2D642D0E942311682F660F860F1A
:101A2000880F682F6F0D82EE91E00E94E00865E05C
:101A300082EE91E00E94E008812F642D0E94231124
:101A4000682F660F680F660F610F82EE91E00E94AB
:101A5000E0080E94F7070E940F09182F00937701F2
:101A6000509299011092780110929A016FE082EEE3
:101A700091E00E94E008612F6F7782EE91E00E9472
:101A8000E0080E94F7078DE191E09F938F931F92EA
:101A900083E08F937F926F920E9469050F900F9061
:101AA0000F900F900F900F90CE018F5A9F4F0E9472
:101AB00024020E94680B67968FAD67971F928F93E1
:101AC00066968FAD66971F928F9365968FAD6597DB
:101AD0001F928F9384E291E09F938F938E010F5F0B
:101AE0001F4F1F930F930E9414121F930F9380E1B7
:101AF00091E09F938F931F9284E0F82EFF920BE862
:101B000012E01F930F930E9469051F929EE1E92E38
:101B1000EF921F9285E08F9328E4C22E21E0D22E0F
:101B2000DF92CF925E018DE3A80EB11CBF92AF92FF
:101B30000E9414121F92EF921F9286E18F93DF9200
:101B4000CF926E0199E2C90ED11CDF92CF920E9412
:101B500014120FB6F894DEBF0FBECDBFBF92AF9286
:101B600082E091E09F938F931F92FF921F930F93B8
:101B70000E946905DF92CF9283EF90E09F938F934D
:101B80001F92FF921F930F930E9469051F92EF927D
:101B90001F928AE08F9383EC90E09F938F931F9224
:101BA000FF921F930F930E94690560E08EE00E94F0
:101BB000A80A0FB6F894DEBF0FBECDBF8091E80231
:101BC0009091E902892B21F18091E0029091E1024C
:101BD000019719F40E94680B02C00E94430B6093A6
:101BE000EA027093EB028093EC029093ED0281E0A5
:101BF0008093D7021092E2021092E3021092E40264
:101C00001092E50281E090E09093E7028093E60273
:101C1000109276012091D60230E010929D0210922F
:101C2000C6028091940290E0281739070CF4C9018C
:101C30008093CA020E947F070E94680B2B013C011F
:101C40008091C702882309F445C080919D028823B2
:101C500009F440C0530142019201A50160E070E027
:101C600080E090E0A0909E02B0909F02C090A00201
:101C7000D090A102E090A202F090A3020091A402F1
:101C80001091A5020E945111A090A602B090A70247
:101C9000C090A802D090A902E090AA02F090AB02F6
:101CA0000091AC021091AD020E945A1199F090F08F
:101CB0002091D60230E010929D021092C6028091CF
:101CC000940290E0281739070CF4C9018093CA02E6
:101CD0000E947F079091CB028091CA029817E1F190
:101CE0004091CC025091CD026091CE027091CF0212
:101CF00093018201041B150B260B370B891758F42F
:101D00004091B8025091B90260E070E004171507E5
:101D10002607370768F49817F8F48091B602909177
:101D2000B702A0E0B0E0081719072A073B07A0F0A8
:101D30000E947F07930182014092CC021093CD0252
:101D40002093CE023093CF021092D0021092D10293
:101D50001092D2021092D3028091D702882309F404
:101D600079C08091E0029091E102019709F50E940B
:101D7000680B0091EA021091EB022091EC02309185
:101D8000ED02DC01CB01801B910BA20BB30B009188
:101D9000D8021091D9022091DA023091DB0280172B
:101DA0009107A207B30708F455C00E94680B1FC033
:101DB0000E94430B0091EA021091EB022091EC0289
:101DC0003091ED02DC01CB01801B910BA20BB30B18
:101DD0000091D8021091D9022091DA023091DB02F1
:101DE00080179107A207B307A8F10E94430B6093E5
:101DF000EA027093EB028093EC029093ED028091E3
:101E0000E2029091E302A091E402B091E5024091D8
:101E1000DC025091DD026091DE027091DF02481B0E
:101E2000590B6A0B7B0B413051056105710511F4AB
:101E30001092D7020196A11DB11D8093E2029093EA
:101E4000E302A093E402B093E502E091E802F0918E
:101E5000E90209950E940B02EFCEE2EEF1E0138257
:101E6000128248EE53E060E070E04483558366835D
:101E7000778384E091E091838083EEEEF1E013823A
:101E80001282448355836683778386E191E0918350
:101E9000808385EC90E09587848784EC90E0978739
:101EA000868780EC90E0918B808B81EC90E0938B27
:101EB000828B82EC90E0958B848B86EC90E0978B04
:101EC000868B118E128E138E148EEBE8F2E0118247
:101ED000108281E08283148213821682158210861A
:101EE0001782E7EDF2E081E090E0928781874183FD
:101EF000528363837483158216821782108621EBC6
:101F000032E0328B218B1082138A148A158A168A4A
:101F10001386148615861686E4E9F2E02FEF2083F7
:101F200040E050E060E87FE3418352836383748341
:101F30001582168217821086A2E0B0E0B3A3A2A396
:101F4000A4E1B0E0B5A3A4A397A386A391A780A71B
:101F500042A753A764A775A716A617A610AA11AA89
:101F600012AA13AA1092D4022093D5021092D6027C
:101F70008DE090E095AB84AB88E8828F83E1838F1E
:101F8000148E158E168E178E10A211A217AA089500
:101F90000E940A1008F481E00895E89409C097FBB4
:101FA0003EF490958095709561957F4F8F4F9F4F30
:101FB0009923A9F0F92F96E9BB279395F695879574
:101FC00077956795B795F111F8CFFAF4BB0F11F437
:101FD00060FF1BC06F5F7F4F8F4F9F4F16C08823DE
:101FE00011F096E911C0772321F09EE8872F762F14
:101FF00005C0662371F096E8862F70E060E02AF055
:102000009A95660F771F881FDAF7880F9695879540
:1020100097F90895990F0008550FAA0BE0E8FEEF15
:1020200016161706E807F907C0F012161306E4079C
:10203000F50798F0621B730B840B950B39F40A2695
:1020400061F0232B242B252B21F408950A2609F473
:10205000A140A6958FEF811D811D08950E9441101A
:102060000C94B2100E94A41038F00E94AB1020F023
:10207000952311F00C949B100C94A11011240C9436
:10208000E6100E94C31070F3959FC1F3950F50E0C6
:10209000551F629FF001729FBB27F00DB11D639F1A
:1020A000AA27F00DB11DAA1F649F6627B00DA11DC0
:1020B000661F829F2227B00DA11D621F739FB00D66
:1020C000A11D621F839FA00D611D221F749F3327D6
:1020D000A00D611D231F849F600D211D822F762F6F
:1020E0006A2F11249F5750409AF0F1F088234AF04C
:1020F000EE0FFF1FBB1F661F771F881F91505040B8
:10210000A9F79E3F510580F00C949B100C94E610AB
:102110005F3FE4F3983ED4F3869577956795B7953E
:10212000F795E7959F5FC1F7FE2B880F911D969558
:10213000879597F9089597F99F6780E870E060E0C8
:1021400008959FEF80EC089500240A941616170650
:1021500018060906089500240A9412161306140698
:1021600005060895092E0394000C11F4882352F0FB
:10217000BB0F40F4BF2B11F460FF04C06F5F7F4FB3
:102180008F4F9F4F089557FD9058440F551F59F09A
:102190005F3F71F04795880F97FB991F61F09F3F54
:1021A00079F087950895121613061406551FF2CF7D
:1021B0004695F1DF08C0161617061806991FF1CFCD
:1021C00086957105610508940895E894BB276627F4
:1021D0007727CB0197F908952F923F924F925F9204
:1021E0006F927F928F929F92AF92BF92CF92DF9227
:1021F000EF92FF920F931F93CF93DF93CDB7DEB78C
:10220000CA1BDB0B0FB6F894DEBF0FBECDBF09941F
:102210002A88398848885F846E847D848C849B8476
:10222000AA84B984C884DF80EE80FD800C811B8184
:10223000AA81B981CE0FD11D0FB6F894DEBF0FBEB3
:10224000CDBFED010895991B79E004C0991F961741
:1022500008F0961B881F7A95C9F780950895A1E22A
:102260001A2EAA1BBB1BFD010DC0AA1FBB1FEE1F10
:10227000FF1FA217B307E407F50720F0A21BB30B5B
:10228000E40BF50B661F771F881F991F1A9469F7D7
:1022900060957095809590959B01AC01BD01CF0133
:1022A00008952A193B094C095D096E097F09800BC5
:1022B000910B08952A153B054C055D056E057F05BC
:1022C000800791070895EE0FFF1F0590F491E02D10
:1022D00009945058BB27AA270E9481110C94B21070
:1022E0000E94A41038F00E94AB1020F039F49F3FF8
:1022F00019F426F40C94A1100EF4E095E7FB0C946D
:102300009B10E92F0E94C31058F3BA176207730796
:102310008407950720F079F4A6F50C94E5100EF4E7
:10232000E0950B2EBA2FA02D0B01B90190010C01E5
:10233000CA01A0011124FF27591B99F0593F50F4FD
:10234000503E68F11A16F040A22F232F342F442755
:10235000585FF3CF469537952795A795F04053954D
:10236000C9F77EF41F16BA0B620B730B840BBAF01D
:102370009150A1F0FF0FBB1F661F771F881FC2F788
:102380000EC0BA0F621F731F841F48F4879577959C
:102390006795B795F7959E3F08F0B0CF9395880F56
:1023A00008F09927EE0F9795879508950E94CB1016
:1023B00088F09F5798F0B92F9927B751B0F0E1F006
:1023C000660F771F881F991F1AF0BA95C9F714C0B6
:1023D000B13091F00E94E510B1E008950C94E51041
:1023E000672F782F8827B85F39F0B93FCCF38695EF
:1023F00077956795B395D9F73EF49095809570954C
:1024000061957F4F8F4F9F4F08950E940A1008F4E7
:102410008FEF08950E940A10880B990B089581E0B0
:1024200090E0F8940C94C714AEE0B0E0EAE1F2E179
:102430000C94FA100D891E8986E08C831A83098317
:102440008FEF9FE79E838D83AE01475E5F4F6F895D
:10245000788DCE0101960E943612EF81F885E00F4B
:10246000F11F10822E96E4E00C941611ABE0B0E060
:10247000ECE3F2E10C94EC106C017B018A01FC01AD
:1024800017821682838181FFCCC1CE0101963C0167
:10249000F6019381F70193FD859193FF81917F016F
:1024A000882309F4BAC1853239F493FD859193FFED
:1024B00081917F01853229F4B60190E00E942D14AC
:1024C000E7CF912C212C312CFFE1F315D8F08B3282
:1024D00079F038F4803279F08332A1F4232D206131
:1024E0001DC08D3261F0803369F4232D216016C048
:1024F000832D8260382EE32DE4603E2E2AC0F32D1A
:10250000F8601DC037FC2DC020ED280F2A3040F0A8
:102510008E32B9F436FC81C1232D2064322E19C0CD
:1025200036FE06C08AE0989E200D1124922E11C01E
:10253000EAE02E9E200D1124222EF32DF0623F2E74
:1025400008C08C3621F4832D8068382E02C088366E
:1025500041F4F70193FD859193FF81917F018111F2
:10256000B3CF982F9F7D9554933028F40C5F1F4F65
:102570009FE399830DC0833631F0833771F0833543
:1025800009F059C021C0F801808189830E5F1F4F77
:1025900088248394912C530113C02801F2E04F0E3C
:1025A000511CF801A080B18036FE03C0692D70E097
:1025B00002C06FEF7FEFC5010E9422144C0182011F
:1025C000F32DFF773F2E16C0280122E0420E511C4A
:1025D000F801A080B18036FE03C0692D70E002C012
:1025E0006FEF7FEFC5010E9417144C01F32DF068C7
:1025F0003F2E820133FC1BC0822D90E08816990685
:10260000B0F4B60180E290E00E942D142A94F4CF39
:10261000F50137FC859137FE81915F01B60190E0AD
:102620000E942D1421102A9421E0821A910881140D
:10263000910471F7E8C0843611F0893641F5F8014C
:1026400037FE07C060817181828193810C5F1F4FCB
:1026500008C060817181072E000C880B990B0E5FFA
:102660001F4FF32DFF763F2E97FF09C09095809561
:10267000709561957F4F8F4F9F4FF0683F2E2AE0F6
:1026800030E0A3010E946914882E861845C0853762
:1026900031F4232D2F7EB22E2AE030E025C0932D79
:1026A000997FB92E8F36C1F018F4883579F0B5C00E
:1026B000803719F0883721F0B0C0E92FE061BE2ED5
:1026C000B4FE0DC0FB2DF460BF2E09C034FE0AC05D
:1026D000292F2660B22E06C028E030E005C020E198
:1026E00030E002C020E132E0F801B7FE07C06081AF
:1026F0007181828193810C5F1F4F06C0608171815F
:1027000080E090E00E5F1F4FA3010E946914882EA5
:102710008618FB2DFF773F2E36FE0DC0232D2E7F12
:10272000A22E891458F434FE0BC032FC09C0832D4C
:102730008E7EA82E05C0B82CA32C03C0B82C01C0D7
:10274000B92CA4FE0FC0FE01E80DF11D808180337D
:1027500021F49A2D997EA92E09C0A2FE06C0B39439
:10276000B39404C08A2D867809F0B394A3FC11C0F9
:10277000A0FE06C0B21488F4280C922C9B180EC040
:10278000B21460F4B60180E290E00E942D14B3947C
:10279000F7CFB21418F42B1802C0982C212CA4FEE9
:1027A00010C0B60180E390E00E942D14A2FE17C075
:1027B000A1FC03C088E790E002C088E590E0B60184
:1027C0000CC08A2D867859F0A1FE02C08BE201C0B0
:1027D00080E2A7FC8DE2B60190E00E942D148914DE
:1027E00038F4B60180E390E00E942D149A94F7CF5C
:1027F0008A94F301E80DF11D8081B60190E00E94FA
:102800002D148110F5CF222009F442CEB60180E2CA
:1028100090E00E942D142A94F6CFF60186819781CC
:1028200002C08FEF9FEF2B96E2E10C940811FC01A0
:102830000590615070400110D8F7809590958E0FEB
:102840009F1F0895FC016150704001900110D8F75E
:10285000809590958E0F9F1F08950F931F93CF9390
:10286000DF93FB01238121FD03C08FEF9FEF2CC07D
:1028700022FF16C0468157812481358142175307B4
:1028800044F4A081B1819D012F5F3F4F31832083AC
:102890008C93268137812F5F3F4F3783268314C067
:1028A0008B01EC01FB010084F185E02D0995892B5A
:1028B000E1F6D80116968D919C911797019617967F
:1028C0009C938E931697CE01DF91CF911F910F911C
:1028D0000895FA01AA27283051F1203181F1E894B6
:1028E0006F936E7F6E5F7F4F8F4F9F4FAF4FB1E003
:1028F0003ED0B4E03CD0670F781F891F9A1FA11DFE
:10290000680F791F8A1F911DA11D6A0F711D811DFE
:10291000911DA11D20D009F468943F912AE0269FC3
:1029200011243019305D3193DEF6CF010895462F22
:102930004770405D4193B3E00FD0C9F7F6CF462F03
:102940004F70405D4A3318F0495D31FD405241936C
:1029500002D0A9F7EACFB4E0A69597958795779529
:102960006795BA95C9F700976105710508959B01B0
:10297000AC010A2E06945795479537952795BA9539
:10298000C9F7620F731F841F951FA01D0895F89447
:02299000FFCF77
:1029920000000000E008B30830018708AB08970880
:1029A2008808000000009C0105013301E90164016F
:1029B20042015601253032643A253032643A2530DC
:1029C2003264004D617920313320323032300031AF
:1029D200383A32333A353900253032643A253032CA
:1029E200643A3030003A20006E616E00696E660013
:1029F2006F7666003078003062005400460046452B
:062A0200574E545600007F
:00000001FF
